{
  "_format": "hh-sol-artifact-1",
  "contractName": "NFTMarketplace",
  "sourceName": "contracts/NFTMarketplace.sol",
  "abi": [
    {
      "inputs": [],
      "stateMutability": "nonpayable",
      "type": "constructor"
    },
    {
      "anonymous": false,
      "inputs": [
        {
          "indexed": true,
          "internalType": "address",
          "name": "owner",
          "type": "address"
        },
        {
          "indexed": true,
          "internalType": "address",
          "name": "approved",
          "type": "address"
        },
        {
          "indexed": true,
          "internalType": "uint256",
          "name": "tokenId",
          "type": "uint256"
        }
      ],
      "name": "Approval",
      "type": "event"
    },
    {
      "anonymous": false,
      "inputs": [
        {
          "indexed": true,
          "internalType": "address",
          "name": "owner",
          "type": "address"
        },
        {
          "indexed": true,
          "internalType": "address",
          "name": "operator",
          "type": "address"
        },
        {
          "indexed": false,
          "internalType": "bool",
          "name": "approved",
          "type": "bool"
        }
      ],
      "name": "ApprovalForAll",
      "type": "event"
    },
    {
      "anonymous": false,
      "inputs": [
        {
          "indexed": true,
          "internalType": "uint256",
          "name": "tokenId",
          "type": "uint256"
        },
        {
          "indexed": false,
          "internalType": "address",
          "name": "owner",
          "type": "address"
        },
        {
          "indexed": false,
          "internalType": "address",
          "name": "seller",
          "type": "address"
        },
        {
          "indexed": false,
          "internalType": "uint256",
          "name": "price",
          "type": "uint256"
        },
        {
          "indexed": false,
          "internalType": "bool",
          "name": "currentlyListed",
          "type": "bool"
        }
      ],
      "name": "TokenListedSuccess",
      "type": "event"
    },
    {
      "anonymous": false,
      "inputs": [
        {
          "indexed": true,
          "internalType": "address",
          "name": "from",
          "type": "address"
        },
        {
          "indexed": true,
          "internalType": "address",
          "name": "to",
          "type": "address"
        },
        {
          "indexed": true,
          "internalType": "uint256",
          "name": "tokenId",
          "type": "uint256"
        }
      ],
      "name": "Transfer",
      "type": "event"
    },
    {
      "inputs": [
        {
          "internalType": "address",
          "name": "to",
          "type": "address"
        },
        {
          "internalType": "uint256",
          "name": "tokenId",
          "type": "uint256"
        }
      ],
      "name": "approve",
      "outputs": [],
      "stateMutability": "nonpayable",
      "type": "function"
    },
    {
      "inputs": [
        {
          "internalType": "address",
          "name": "owner",
          "type": "address"
        }
      ],
      "name": "balanceOf",
      "outputs": [
        {
          "internalType": "uint256",
          "name": "",
          "type": "uint256"
        }
      ],
      "stateMutability": "view",
      "type": "function"
    },
    {
      "inputs": [
        {
          "internalType": "string",
          "name": "tokenURI",
          "type": "string"
        },
        {
          "internalType": "uint256",
          "name": "price",
          "type": "uint256"
        }
      ],
      "name": "createToken",
      "outputs": [
        {
          "internalType": "uint256",
          "name": "",
          "type": "uint256"
        }
      ],
      "stateMutability": "payable",
      "type": "function"
    },
    {
      "inputs": [
        {
          "internalType": "uint256",
          "name": "tokenId",
          "type": "uint256"
        }
      ],
      "name": "executeSale",
      "outputs": [],
      "stateMutability": "payable",
      "type": "function"
    },
    {
      "inputs": [],
      "name": "getAllNFTs",
      "outputs": [
        {
          "components": [
            {
              "internalType": "uint256",
              "name": "tokenId",
              "type": "uint256"
            },
            {
              "internalType": "address payable",
              "name": "owner",
              "type": "address"
            },
            {
              "internalType": "address payable",
              "name": "seller",
              "type": "address"
            },
            {
              "internalType": "uint256",
              "name": "price",
              "type": "uint256"
            },
            {
              "internalType": "bool",
              "name": "currentlyListed",
              "type": "bool"
            }
          ],
          "internalType": "struct NFTMarketplace.ListedToken[]",
          "name": "",
          "type": "tuple[]"
        }
      ],
      "stateMutability": "view",
      "type": "function"
    },
    {
      "inputs": [
        {
          "internalType": "uint256",
          "name": "tokenId",
          "type": "uint256"
        }
      ],
      "name": "getApproved",
      "outputs": [
        {
          "internalType": "address",
          "name": "",
          "type": "address"
        }
      ],
      "stateMutability": "view",
      "type": "function"
    },
    {
      "inputs": [],
      "name": "getCurrentToken",
      "outputs": [
        {
          "internalType": "uint256",
          "name": "",
          "type": "uint256"
        }
      ],
      "stateMutability": "view",
      "type": "function"
    },
    {
      "inputs": [],
      "name": "getLatestIdToListedToken",
      "outputs": [
        {
          "components": [
            {
              "internalType": "uint256",
              "name": "tokenId",
              "type": "uint256"
            },
            {
              "internalType": "address payable",
              "name": "owner",
              "type": "address"
            },
            {
              "internalType": "address payable",
              "name": "seller",
              "type": "address"
            },
            {
              "internalType": "uint256",
              "name": "price",
              "type": "uint256"
            },
            {
              "internalType": "bool",
              "name": "currentlyListed",
              "type": "bool"
            }
          ],
          "internalType": "struct NFTMarketplace.ListedToken",
          "name": "",
          "type": "tuple"
        }
      ],
      "stateMutability": "view",
      "type": "function"
    },
    {
      "inputs": [
        {
          "internalType": "uint256",
          "name": "tokenId",
          "type": "uint256"
        }
      ],
      "name": "getListedTokenForId",
      "outputs": [
        {
          "components": [
            {
              "internalType": "uint256",
              "name": "tokenId",
              "type": "uint256"
            },
            {
              "internalType": "address payable",
              "name": "owner",
              "type": "address"
            },
            {
              "internalType": "address payable",
              "name": "seller",
              "type": "address"
            },
            {
              "internalType": "uint256",
              "name": "price",
              "type": "uint256"
            },
            {
              "internalType": "bool",
              "name": "currentlyListed",
              "type": "bool"
            }
          ],
          "internalType": "struct NFTMarketplace.ListedToken",
          "name": "",
          "type": "tuple"
        }
      ],
      "stateMutability": "view",
      "type": "function"
    },
    {
      "inputs": [],
      "name": "getMyNFTs",
      "outputs": [
        {
          "components": [
            {
              "internalType": "uint256",
              "name": "tokenId",
              "type": "uint256"
            },
            {
              "internalType": "address payable",
              "name": "owner",
              "type": "address"
            },
            {
              "internalType": "address payable",
              "name": "seller",
              "type": "address"
            },
            {
              "internalType": "uint256",
              "name": "price",
              "type": "uint256"
            },
            {
              "internalType": "bool",
              "name": "currentlyListed",
              "type": "bool"
            }
          ],
          "internalType": "struct NFTMarketplace.ListedToken[]",
          "name": "",
          "type": "tuple[]"
        }
      ],
      "stateMutability": "view",
      "type": "function"
    },
    {
      "inputs": [
        {
          "internalType": "address",
          "name": "owner",
          "type": "address"
        },
        {
          "internalType": "address",
          "name": "operator",
          "type": "address"
        }
      ],
      "name": "isApprovedForAll",
      "outputs": [
        {
          "internalType": "bool",
          "name": "",
          "type": "bool"
        }
      ],
      "stateMutability": "view",
      "type": "function"
    },
    {
      "inputs": [],
      "name": "listPrice",
      "outputs": [
        {
          "internalType": "uint256",
          "name": "",
          "type": "uint256"
        }
      ],
      "stateMutability": "view",
      "type": "function"
    },
    {
      "inputs": [],
      "name": "name",
      "outputs": [
        {
          "internalType": "string",
          "name": "",
          "type": "string"
        }
      ],
      "stateMutability": "view",
      "type": "function"
    },
    {
      "inputs": [
        {
          "internalType": "uint256",
          "name": "tokenId",
          "type": "uint256"
        }
      ],
      "name": "ownerOf",
      "outputs": [
        {
          "internalType": "address",
          "name": "",
          "type": "address"
        }
      ],
      "stateMutability": "view",
      "type": "function"
    },
    {
      "inputs": [
        {
          "internalType": "address",
          "name": "from",
          "type": "address"
        },
        {
          "internalType": "address",
          "name": "to",
          "type": "address"
        },
        {
          "internalType": "uint256",
          "name": "tokenId",
          "type": "uint256"
        }
      ],
      "name": "safeTransferFrom",
      "outputs": [],
      "stateMutability": "nonpayable",
      "type": "function"
    },
    {
      "inputs": [
        {
          "internalType": "address",
          "name": "from",
          "type": "address"
        },
        {
          "internalType": "address",
          "name": "to",
          "type": "address"
        },
        {
          "internalType": "uint256",
          "name": "tokenId",
          "type": "uint256"
        },
        {
          "internalType": "bytes",
          "name": "data",
          "type": "bytes"
        }
      ],
      "name": "safeTransferFrom",
      "outputs": [],
      "stateMutability": "nonpayable",
      "type": "function"
    },
    {
      "inputs": [
        {
          "internalType": "address",
          "name": "operator",
          "type": "address"
        },
        {
          "internalType": "bool",
          "name": "approved",
          "type": "bool"
        }
      ],
      "name": "setApprovalForAll",
      "outputs": [],
      "stateMutability": "nonpayable",
      "type": "function"
    },
    {
      "inputs": [
        {
          "internalType": "bytes4",
          "name": "interfaceId",
          "type": "bytes4"
        }
      ],
      "name": "supportsInterface",
      "outputs": [
        {
          "internalType": "bool",
          "name": "",
          "type": "bool"
        }
      ],
      "stateMutability": "view",
      "type": "function"
    },
    {
      "inputs": [],
      "name": "symbol",
      "outputs": [
        {
          "internalType": "string",
          "name": "",
          "type": "string"
        }
      ],
      "stateMutability": "view",
      "type": "function"
    },
    {
      "inputs": [
        {
          "internalType": "uint256",
          "name": "tokenId",
          "type": "uint256"
        }
      ],
      "name": "tokenURI",
      "outputs": [
        {
          "internalType": "string",
          "name": "",
          "type": "string"
        }
      ],
      "stateMutability": "view",
      "type": "function"
    },
    {
      "inputs": [
        {
          "internalType": "address",
          "name": "from",
          "type": "address"
        },
        {
          "internalType": "address",
          "name": "to",
          "type": "address"
        },
        {
          "internalType": "uint256",
          "name": "tokenId",
          "type": "uint256"
        }
      ],
      "name": "transferFrom",
      "outputs": [],
      "stateMutability": "nonpayable",
      "type": "function"
    },
    {
      "inputs": [
        {
          "internalType": "uint256",
          "name": "_listPrice",
          "type": "uint256"
        }
      ],
      "name": "updateListPrice",
      "outputs": [],
      "stateMutability": "payable",
      "type": "function"
    }
  ],
  "bytecode": "0x6080604052662386f26fc10000600a553480156200001c57600080fd5b506040518060400160405280600e81526020017f4e46544d61726b6574706c6163650000000000000000000000000000000000008152506040518060400160405280600481526020017f4e46544d0000000000000000000000000000000000000000000000000000000081525081600090816200009a919062000370565b508060019081620000ac919062000370565b50505033600960006101000a81548173ffffffffffffffffffffffffffffffffffffffff021916908373ffffffffffffffffffffffffffffffffffffffff16021790555062000457565b600081519050919050565b7f4e487b7100000000000000000000000000000000000000000000000000000000600052604160045260246000fd5b7f4e487b7100000000000000000000000000000000000000000000000000000000600052602260045260246000fd5b600060028204905060018216806200017857607f821691505b6020821081036200018e576200018d62000130565b5b50919050565b60008190508160005260206000209050919050565b60006020601f8301049050919050565b600082821b905092915050565b600060088302620001f87fffffffffffffffffffffffffffffffffffffffffffffffffffffffffffffffff82620001b9565b620002048683620001b9565b95508019841693508086168417925050509392505050565b6000819050919050565b6000819050919050565b6000620002516200024b62000245846200021c565b62000226565b6200021c565b9050919050565b6000819050919050565b6200026d8362000230565b620002856200027c8262000258565b848454620001c6565b825550505050565b600090565b6200029c6200028d565b620002a981848462000262565b505050565b5b81811015620002d157620002c560008262000292565b600181019050620002af565b5050565b601f8211156200032057620002ea8162000194565b620002f584620001a9565b8101602085101562000305578190505b6200031d6200031485620001a9565b830182620002ae565b50505b505050565b600082821c905092915050565b6000620003456000198460080262000325565b1980831691505092915050565b600062000360838362000332565b9150826002028217905092915050565b6200037b82620000f6565b67ffffffffffffffff81111562000397576200039662000101565b5b620003a382546200015f565b620003b0828285620002d5565b600060209050601f831160018114620003e85760008415620003d3578287015190505b620003df858262000352565b8655506200044f565b601f198416620003f88662000194565b60005b828110156200042257848901518255600182019150602085019450602081019050620003fb565b868310156200044257848901516200043e601f89168262000332565b8355505b6001600288020188555050505b505050505050565b61409480620004676000396000f3fe6080604052600436106101355760003560e01c80638e264590116100ab578063c322579c1161006f578063c322579c14610430578063c87b56dd1461044c578063d1a88ae514610489578063e0391b09146104b4578063e985e9c5146104df578063ef2d17461461051c57610135565b80638e2645901461035a57806395d89b41146103975780639b1225c4146103c2578063a22cb465146103de578063b88d4fde1461040757610135565b806342842e0e116100fd57806342842e0e14610231578063629cb2e41461025a5780636352211e146102855780636eb588d9146102c257806370a08231146102ed57806372b3b6201461032a57610135565b806301ffc9a71461013a57806306fdde0314610177578063081812fc146101a2578063095ea7b3146101df57806323b872dd14610208575b600080fd5b34801561014657600080fd5b50610161600480360381019061015c91906129ed565b610547565b60405161016e9190612a35565b60405180910390f35b34801561018357600080fd5b5061018c610629565b6040516101999190612ae0565b60405180910390f35b3480156101ae57600080fd5b506101c960048036038101906101c49190612b38565b6106bb565b6040516101d69190612ba6565b60405180910390f35b3480156101eb57600080fd5b5061020660048036038101906102019190612bed565b610701565b005b34801561021457600080fd5b5061022f600480360381019061022a9190612c2d565b610818565b005b34801561023d57600080fd5b5061025860048036038101906102539190612c2d565b610878565b005b34801561026657600080fd5b5061026f610898565b60405161027c9190612dd6565b60405180910390f35b34801561029157600080fd5b506102ac60048036038101906102a79190612b38565b610c79565b6040516102b99190612ba6565b60405180910390f35b3480156102ce57600080fd5b506102d7610cff565b6040516102e49190612e07565b60405180910390f35b3480156102f957600080fd5b50610314600480360381019061030f9190612e22565b610d05565b6040516103219190612e07565b60405180910390f35b610344600480360381019061033f9190612f84565b610dbc565b6040516103519190612e07565b60405180910390f35b34801561036657600080fd5b50610381600480360381019061037c9190612b38565b610dfe565b60405161038e9190613048565b60405180910390f35b3480156103a357600080fd5b506103ac610f06565b6040516103b99190612ae0565b60405180910390f35b6103dc60048036038101906103d79190612b38565b610f98565b005b3480156103ea57600080fd5b506104056004803603810190610400919061308f565b61118a565b005b34801561041357600080fd5b5061042e60048036038101906104299190613170565b6111a0565b005b61044a60048036038101906104459190612b38565b611202565b005b34801561045857600080fd5b50610473600480360381019061046e9190612b38565b61129c565b6040516104809190612ae0565b60405180910390f35b34801561049557600080fd5b5061049e6113ae565b6040516104ab9190613048565b60405180910390f35b3480156104c057600080fd5b506104c96114c3565b6040516104d69190612dd6565b60405180910390f35b3480156104eb57600080fd5b50610506600480360381019061050191906131f3565b611695565b6040516105139190612a35565b60405180910390f35b34801561052857600080fd5b50610531611729565b60405161053e9190612e07565b60405180910390f35b60007f80ac58cd000000000000000000000000000000000000000000000000000000007bffffffffffffffffffffffffffffffffffffffffffffffffffffffff1916827bffffffffffffffffffffffffffffffffffffffffffffffffffffffff1916148061061257507f5b5e139f000000000000000000000000000000000000000000000000000000007bffffffffffffffffffffffffffffffffffffffffffffffffffffffff1916827bffffffffffffffffffffffffffffffffffffffffffffffffffffffff1916145b8061062257506106218261173a565b5b9050919050565b60606000805461063890613262565b80601f016020809104026020016040519081016040528092919081815260200182805461066490613262565b80156106b15780601f10610686576101008083540402835291602001916106b1565b820191906000526020600020905b81548152906001019060200180831161069457829003601f168201915b5050505050905090565b60006106c6826117a4565b6004600083815260200190815260200160002060009054906101000a900473ffffffffffffffffffffffffffffffffffffffff169050919050565b600061070c82610c79565b90508073ffffffffffffffffffffffffffffffffffffffff168373ffffffffffffffffffffffffffffffffffffffff160361077c576040517f08c379a000000000000000000000000000000000000000000000000000000000815260040161077390613305565b60405180910390fd5b8073ffffffffffffffffffffffffffffffffffffffff1661079b6117ef565b73ffffffffffffffffffffffffffffffffffffffff1614806107ca57506107c9816107c46117ef565b611695565b5b610809576040517f08c379a000000000000000000000000000000000000000000000000000000000815260040161080090613397565b60405180910390fd5b61081383836117f7565b505050565b6108296108236117ef565b826118b0565b610868576040517f08c379a000000000000000000000000000000000000000000000000000000000815260040161085f90613429565b60405180910390fd5b610873838383611945565b505050565b610893838383604051806020016040528060008152506111a0565b505050565b606060006108a66007611c3e565b9050600080600080600090505b848110156109cc573373ffffffffffffffffffffffffffffffffffffffff16600b60006001846108e39190613478565b815260200190815260200160002060010160009054906101000a900473ffffffffffffffffffffffffffffffffffffffff1673ffffffffffffffffffffffffffffffffffffffff1614806109a457503373ffffffffffffffffffffffffffffffffffffffff16600b600060018461095a9190613478565b815260200190815260200160002060020160009054906101000a900473ffffffffffffffffffffffffffffffffffffffff1673ffffffffffffffffffffffffffffffffffffffff16145b156109b9576001846109b69190613478565b93505b80806109c4906134ac565b9150506108b3565b5060008367ffffffffffffffff8111156109e9576109e8612e59565b5b604051908082528060200260200182016040528015610a2257816020015b610a0f612924565b815260200190600190039081610a075790505b50905060005b85811015610c6d573373ffffffffffffffffffffffffffffffffffffffff16600b6000600184610a589190613478565b815260200190815260200160002060010160009054906101000a900473ffffffffffffffffffffffffffffffffffffffff1673ffffffffffffffffffffffffffffffffffffffff161480610b1957503373ffffffffffffffffffffffffffffffffffffffff16600b6000600184610acf9190613478565b815260200190815260200160002060020160009054906101000a900473ffffffffffffffffffffffffffffffffffffffff1673ffffffffffffffffffffffffffffffffffffffff16145b15610c5a57600181610b2b9190613478565b92506000600b60008581526020019081526020016000209050806040518060a0016040529081600082015481526020016001820160009054906101000a900473ffffffffffffffffffffffffffffffffffffffff1673ffffffffffffffffffffffffffffffffffffffff1673ffffffffffffffffffffffffffffffffffffffff1681526020016002820160009054906101000a900473ffffffffffffffffffffffffffffffffffffffff1673ffffffffffffffffffffffffffffffffffffffff1673ffffffffffffffffffffffffffffffffffffffff168152602001600382015481526020016004820160009054906101000a900460ff161515151581525050838681518110610c3e57610c3d6134f4565b5b6020026020010181905250600185610c569190613478565b9450505b8080610c65906134ac565b915050610a28565b50809550505050505090565b600080610c8583611c4c565b9050600073ffffffffffffffffffffffffffffffffffffffff168173ffffffffffffffffffffffffffffffffffffffff1603610cf6576040517f08c379a0000000000000000000000000000000000000000000000000000000008152600401610ced9061356f565b60405180910390fd5b80915050919050565b600a5481565b60008073ffffffffffffffffffffffffffffffffffffffff168273ffffffffffffffffffffffffffffffffffffffff1603610d75576040517f08c379a0000000000000000000000000000000000000000000000000000000008152600401610d6c90613601565b60405180910390fd5b600360008373ffffffffffffffffffffffffffffffffffffffff1673ffffffffffffffffffffffffffffffffffffffff168152602001908152602001600020549050919050565b6000610dc86007611c89565b6000610dd46007611c3e565b9050610de03382611c9f565b610dea8185611cbd565b610df48184611d2a565b8091505092915050565b610e06612924565b600b60008381526020019081526020016000206040518060a0016040529081600082015481526020016001820160009054906101000a900473ffffffffffffffffffffffffffffffffffffffff1673ffffffffffffffffffffffffffffffffffffffff1673ffffffffffffffffffffffffffffffffffffffff1681526020016002820160009054906101000a900473ffffffffffffffffffffffffffffffffffffffff1673ffffffffffffffffffffffffffffffffffffffff1673ffffffffffffffffffffffffffffffffffffffff168152602001600382015481526020016004820160009054906101000a900460ff1615151515815250509050919050565b606060018054610f1590613262565b80601f0160208091040260200160405190810160405280929190818152602001828054610f4190613262565b8015610f8e5780601f10610f6357610100808354040283529160200191610f8e565b820191906000526020600020905b815481529060010190602001808311610f7157829003601f168201915b5050505050905090565b6000600b60008381526020019081526020016000206003015490506000600b600084815260200190815260200160002060020160009054906101000a900473ffffffffffffffffffffffffffffffffffffffff169050813414611030576040517f08c379a000000000000000000000000000000000000000000000000000000000815260040161102790613693565b60405180910390fd5b6001600b600085815260200190815260200160002060040160006101000a81548160ff02191690831515021790555033600b600085815260200190815260200160002060020160006101000a81548173ffffffffffffffffffffffffffffffffffffffff021916908373ffffffffffffffffffffffffffffffffffffffff1602179055506110be6008611c89565b6110c9303385611945565b6110d33084610701565b600960009054906101000a900473ffffffffffffffffffffffffffffffffffffffff1673ffffffffffffffffffffffffffffffffffffffff166108fc600a549081150290604051600060405180830381858888f1935050505015801561113d573d6000803e3d6000fd5b508073ffffffffffffffffffffffffffffffffffffffff166108fc349081150290604051600060405180830381858888f19350505050158015611184573d6000803e3d6000fd5b50505050565b61119c6111956117ef565b8383611f2d565b5050565b6111b16111ab6117ef565b836118b0565b6111f0576040517f08c379a00000000000000000000000000000000000000000000000000000000081526004016111e790613429565b60405180910390fd5b6111fc84848484612099565b50505050565b3373ffffffffffffffffffffffffffffffffffffffff16600960009054906101000a900473ffffffffffffffffffffffffffffffffffffffff1673ffffffffffffffffffffffffffffffffffffffff1614611292576040517f08c379a000000000000000000000000000000000000000000000000000000000815260040161128990613725565b60405180910390fd5b80600a8190555050565b60606112a7826117a4565b60006006600084815260200190815260200160002080546112c790613262565b80601f01602080910402602001604051908101604052809291908181526020018280546112f390613262565b80156113405780601f1061131557610100808354040283529160200191611340565b820191906000526020600020905b81548152906001019060200180831161132357829003601f168201915b5050505050905060006113516120f5565b905060008151036113665781925050506113a9565b60008251111561139b578082604051602001611383929190613781565b604051602081830303815290604052925050506113a9565b6113a48461210c565b925050505b919050565b6113b6612924565b60006113c26007611c3e565b9050600b60008281526020019081526020016000206040518060a0016040529081600082015481526020016001820160009054906101000a900473ffffffffffffffffffffffffffffffffffffffff1673ffffffffffffffffffffffffffffffffffffffff1673ffffffffffffffffffffffffffffffffffffffff1681526020016002820160009054906101000a900473ffffffffffffffffffffffffffffffffffffffff1673ffffffffffffffffffffffffffffffffffffffff1673ffffffffffffffffffffffffffffffffffffffff168152602001600382015481526020016004820160009054906101000a900460ff16151515158152505091505090565b606060006114d16007611c3e565b905060008167ffffffffffffffff8111156114ef576114ee612e59565b5b60405190808252806020026020018201604052801561152857816020015b611515612924565b81526020019060019003908161150d5790505b50905060008080600090505b8481101561168a576001816115499190613478565b91506000600b60008481526020019081526020016000209050806040518060a0016040529081600082015481526020016001820160009054906101000a900473ffffffffffffffffffffffffffffffffffffffff1673ffffffffffffffffffffffffffffffffffffffff1673ffffffffffffffffffffffffffffffffffffffff1681526020016002820160009054906101000a900473ffffffffffffffffffffffffffffffffffffffff1673ffffffffffffffffffffffffffffffffffffffff1673ffffffffffffffffffffffffffffffffffffffff168152602001600382015481526020016004820160009054906101000a900460ff16151515158152505085858151811061165c5761165b6134f4565b5b60200260200101819052506001846116749190613478565b9350508080611682906134ac565b915050611534565b508294505050505090565b6000600560008473ffffffffffffffffffffffffffffffffffffffff1673ffffffffffffffffffffffffffffffffffffffff16815260200190815260200160002060008373ffffffffffffffffffffffffffffffffffffffff1673ffffffffffffffffffffffffffffffffffffffff16815260200190815260200160002060009054906101000a900460ff16905092915050565b60006117356007611c3e565b905090565b60007f01ffc9a7000000000000000000000000000000000000000000000000000000007bffffffffffffffffffffffffffffffffffffffffffffffffffffffff1916827bffffffffffffffffffffffffffffffffffffffffffffffffffffffff1916149050919050565b6117ad81612174565b6117ec576040517f08c379a00000000000000000000000000000000000000000000000000000000081526004016117e39061356f565b60405180910390fd5b50565b600033905090565b816004600083815260200190815260200160002060006101000a81548173ffffffffffffffffffffffffffffffffffffffff021916908373ffffffffffffffffffffffffffffffffffffffff160217905550808273ffffffffffffffffffffffffffffffffffffffff1661186a83610c79565b73ffffffffffffffffffffffffffffffffffffffff167f8c5be1e5ebec7d5bd14f71427d1e84f3dd0314c0f7b2291e5b200ac8c7c3b92560405160405180910390a45050565b6000806118bc83610c79565b90508073ffffffffffffffffffffffffffffffffffffffff168473ffffffffffffffffffffffffffffffffffffffff1614806118fe57506118fd8185611695565b5b8061193c57508373ffffffffffffffffffffffffffffffffffffffff16611924846106bb565b73ffffffffffffffffffffffffffffffffffffffff16145b91505092915050565b8273ffffffffffffffffffffffffffffffffffffffff1661196582610c79565b73ffffffffffffffffffffffffffffffffffffffff16146119bb576040517f08c379a00000000000000000000000000000000000000000000000000000000081526004016119b290613817565b60405180910390fd5b600073ffffffffffffffffffffffffffffffffffffffff168273ffffffffffffffffffffffffffffffffffffffff1603611a2a576040517f08c379a0000000000000000000000000000000000000000000000000000000008152600401611a21906138a9565b60405180910390fd5b611a3783838360016121b5565b8273ffffffffffffffffffffffffffffffffffffffff16611a5782610c79565b73ffffffffffffffffffffffffffffffffffffffff1614611aad576040517f08c379a0000000000000000000000000000000000000000000000000000000008152600401611aa490613817565b60405180910390fd5b6004600082815260200190815260200160002060006101000a81549073ffffffffffffffffffffffffffffffffffffffff02191690556001600360008573ffffffffffffffffffffffffffffffffffffffff1673ffffffffffffffffffffffffffffffffffffffff168152602001908152602001600020600082825403925050819055506001600360008473ffffffffffffffffffffffffffffffffffffffff1673ffffffffffffffffffffffffffffffffffffffff16815260200190815260200160002060008282540192505081905550816002600083815260200190815260200160002060006101000a81548173ffffffffffffffffffffffffffffffffffffffff021916908373ffffffffffffffffffffffffffffffffffffffff160217905550808273ffffffffffffffffffffffffffffffffffffffff168473ffffffffffffffffffffffffffffffffffffffff167fddf252ad1be2c89b69c2b068fc378daa952ba7f163c4a11628f55a4df523b3ef60405160405180910390a4611c3983838360016122db565b505050565b600081600001549050919050565b60006002600083815260200190815260200160002060009054906101000a900473ffffffffffffffffffffffffffffffffffffffff169050919050565b6001816000016000828254019250508190555050565b611cb98282604051806020016040528060008152506122e1565b5050565b611cc682612174565b611d05576040517f08c379a0000000000000000000000000000000000000000000000000000000008152600401611cfc9061393b565b60405180910390fd5b80600660008481526020019081526020016000209081611d259190613b07565b505050565b600a543414611d6e576040517f08c379a0000000000000000000000000000000000000000000000000000000008152600401611d6590613c4b565b60405180910390fd5b60008111611db1576040517f08c379a0000000000000000000000000000000000000000000000000000000008152600401611da890613cdd565b60405180910390fd5b6040518060a001604052808381526020013073ffffffffffffffffffffffffffffffffffffffff1681526020013373ffffffffffffffffffffffffffffffffffffffff16815260200182815260200160011515815250600b60008481526020019081526020016000206000820151816000015560208201518160010160006101000a81548173ffffffffffffffffffffffffffffffffffffffff021916908373ffffffffffffffffffffffffffffffffffffffff16021790555060408201518160020160006101000a81548173ffffffffffffffffffffffffffffffffffffffff021916908373ffffffffffffffffffffffffffffffffffffffff1602179055506060820151816003015560808201518160040160006101000a81548160ff021916908315150217905550905050611eea333084611945565b817f9339409317fd01fabff48b703019016f49159bacc801ae872d2ca637d226e4c03033846001604051611f219493929190613cfd565b60405180910390a25050565b8173ffffffffffffffffffffffffffffffffffffffff168373ffffffffffffffffffffffffffffffffffffffff1603611f9b576040517f08c379a0000000000000000000000000000000000000000000000000000000008152600401611f9290613d8e565b60405180910390fd5b80600560008573ffffffffffffffffffffffffffffffffffffffff1673ffffffffffffffffffffffffffffffffffffffff16815260200190815260200160002060008473ffffffffffffffffffffffffffffffffffffffff1673ffffffffffffffffffffffffffffffffffffffff16815260200190815260200160002060006101000a81548160ff0219169083151502179055508173ffffffffffffffffffffffffffffffffffffffff168373ffffffffffffffffffffffffffffffffffffffff167f17307eab39ab6107e8899845ad3d59bd9653f200f220920489ca2b5937696c318360405161208c9190612a35565b60405180910390a3505050565b6120a4848484611945565b6120b08484848461233c565b6120ef576040517f08c379a00000000000000000000000000000000000000000000000000000000081526004016120e690613e20565b60405180910390fd5b50505050565b606060405180602001604052806000815250905090565b6060612117826117a4565b60006121216120f5565b90506000815111612141576040518060200160405280600081525061216c565b8061214b846124c3565b60405160200161215c929190613781565b6040516020818303038152906040525b915050919050565b60008073ffffffffffffffffffffffffffffffffffffffff1661219683611c4c565b73ffffffffffffffffffffffffffffffffffffffff1614159050919050565b60018111156122d557600073ffffffffffffffffffffffffffffffffffffffff168473ffffffffffffffffffffffffffffffffffffffff16146122495780600360008673ffffffffffffffffffffffffffffffffffffffff1673ffffffffffffffffffffffffffffffffffffffff16815260200190815260200160002060008282546122419190613e40565b925050819055505b600073ffffffffffffffffffffffffffffffffffffffff168373ffffffffffffffffffffffffffffffffffffffff16146122d45780600360008573ffffffffffffffffffffffffffffffffffffffff1673ffffffffffffffffffffffffffffffffffffffff16815260200190815260200160002060008282546122cc9190613478565b925050819055505b5b50505050565b50505050565b6122eb8383612591565b6122f8600084848461233c565b612337576040517f08c379a000000000000000000000000000000000000000000000000000000000815260040161232e90613e20565b60405180910390fd5b505050565b600061235d8473ffffffffffffffffffffffffffffffffffffffff166127ae565b156124b6578373ffffffffffffffffffffffffffffffffffffffff1663150b7a026123866117ef565b8786866040518563ffffffff1660e01b81526004016123a89493929190613ec9565b6020604051808303816000875af19250505080156123e457506040513d601f19601f820116820180604052508101906123e19190613f2a565b60015b612466573d8060008114612414576040519150601f19603f3d011682016040523d82523d6000602084013e612419565b606091505b50600081510361245e576040517f08c379a000000000000000000000000000000000000000000000000000000000815260040161245590613e20565b60405180910390fd5b805181602001fd5b63150b7a0260e01b7bffffffffffffffffffffffffffffffffffffffffffffffffffffffff1916817bffffffffffffffffffffffffffffffffffffffffffffffffffffffff1916149150506124bb565b600190505b949350505050565b6060600060016124d2846127d1565b01905060008167ffffffffffffffff8111156124f1576124f0612e59565b5b6040519080825280601f01601f1916602001820160405280156125235781602001600182028036833780820191505090505b509050600082602001820190505b600115612586578080600190039150507f3031323334353637383961626364656600000000000000000000000000000000600a86061a8153600a858161257a57612579613f57565b5b04945060008503612531575b819350505050919050565b600073ffffffffffffffffffffffffffffffffffffffff168273ffffffffffffffffffffffffffffffffffffffff1603612600576040517f08c379a00000000000000000000000000000000000000000000000000000000081526004016125f790613fd2565b60405180910390fd5b61260981612174565b15612649576040517f08c379a00000000000000000000000000000000000000000000000000000000081526004016126409061403e565b60405180910390fd5b6126576000838360016121b5565b61266081612174565b156126a0576040517f08c379a00000000000000000000000000000000000000000000000000000000081526004016126979061403e565b60405180910390fd5b6001600360008473ffffffffffffffffffffffffffffffffffffffff1673ffffffffffffffffffffffffffffffffffffffff16815260200190815260200160002060008282540192505081905550816002600083815260200190815260200160002060006101000a81548173ffffffffffffffffffffffffffffffffffffffff021916908373ffffffffffffffffffffffffffffffffffffffff160217905550808273ffffffffffffffffffffffffffffffffffffffff16600073ffffffffffffffffffffffffffffffffffffffff167fddf252ad1be2c89b69c2b068fc378daa952ba7f163c4a11628f55a4df523b3ef60405160405180910390a46127aa6000838360016122db565b5050565b6000808273ffffffffffffffffffffffffffffffffffffffff163b119050919050565b600080600090507a184f03e93ff9f4daa797ed6e38ed64bf6a1f010000000000000000831061282f577a184f03e93ff9f4daa797ed6e38ed64bf6a1f010000000000000000838161282557612824613f57565b5b0492506040810190505b6d04ee2d6d415b85acef8100000000831061286c576d04ee2d6d415b85acef8100000000838161286257612861613f57565b5b0492506020810190505b662386f26fc10000831061289b57662386f26fc10000838161289157612890613f57565b5b0492506010810190505b6305f5e10083106128c4576305f5e10083816128ba576128b9613f57565b5b0492506008810190505b61271083106128e95761271083816128df576128de613f57565b5b0492506004810190505b6064831061290c576064838161290257612901613f57565b5b0492506002810190505b600a831061291b576001810190505b80915050919050565b6040518060a0016040528060008152602001600073ffffffffffffffffffffffffffffffffffffffff168152602001600073ffffffffffffffffffffffffffffffffffffffff168152602001600081526020016000151581525090565b6000604051905090565b600080fd5b600080fd5b60007fffffffff0000000000000000000000000000000000000000000000000000000082169050919050565b6129ca81612995565b81146129d557600080fd5b50565b6000813590506129e7816129c1565b92915050565b600060208284031215612a0357612a0261298b565b5b6000612a11848285016129d8565b91505092915050565b60008115159050919050565b612a2f81612a1a565b82525050565b6000602082019050612a4a6000830184612a26565b92915050565b600081519050919050565b600082825260208201905092915050565b60005b83811015612a8a578082015181840152602081019050612a6f565b60008484015250505050565b6000601f19601f8301169050919050565b6000612ab282612a50565b612abc8185612a5b565b9350612acc818560208601612a6c565b612ad581612a96565b840191505092915050565b60006020820190508181036000830152612afa8184612aa7565b905092915050565b6000819050919050565b612b1581612b02565b8114612b2057600080fd5b50565b600081359050612b3281612b0c565b92915050565b600060208284031215612b4e57612b4d61298b565b5b6000612b5c84828501612b23565b91505092915050565b600073ffffffffffffffffffffffffffffffffffffffff82169050919050565b6000612b9082612b65565b9050919050565b612ba081612b85565b82525050565b6000602082019050612bbb6000830184612b97565b92915050565b612bca81612b85565b8114612bd557600080fd5b50565b600081359050612be781612bc1565b92915050565b60008060408385031215612c0457612c0361298b565b5b6000612c1285828601612bd8565b9250506020612c2385828601612b23565b9150509250929050565b600080600060608486031215612c4657612c4561298b565b5b6000612c5486828701612bd8565b9350506020612c6586828701612bd8565b9250506040612c7686828701612b23565b9150509250925092565b600081519050919050565b600082825260208201905092915050565b6000819050602082019050919050565b612cb581612b02565b82525050565b6000612cc682612b65565b9050919050565b612cd681612cbb565b82525050565b612ce581612a1a565b82525050565b60a082016000820151612d016000850182612cac565b506020820151612d146020850182612ccd565b506040820151612d276040850182612ccd565b506060820151612d3a6060850182612cac565b506080820151612d4d6080850182612cdc565b50505050565b6000612d5f8383612ceb565b60a08301905092915050565b6000602082019050919050565b6000612d8382612c80565b612d8d8185612c8b565b9350612d9883612c9c565b8060005b83811015612dc9578151612db08882612d53565b9750612dbb83612d6b565b925050600181019050612d9c565b5085935050505092915050565b60006020820190508181036000830152612df08184612d78565b905092915050565b612e0181612b02565b82525050565b6000602082019050612e1c6000830184612df8565b92915050565b600060208284031215612e3857612e3761298b565b5b6000612e4684828501612bd8565b91505092915050565b600080fd5b600080fd5b7f4e487b7100000000000000000000000000000000000000000000000000000000600052604160045260246000fd5b612e9182612a96565b810181811067ffffffffffffffff82111715612eb057612eaf612e59565b5b80604052505050565b6000612ec3612981565b9050612ecf8282612e88565b919050565b600067ffffffffffffffff821115612eef57612eee612e59565b5b612ef882612a96565b9050602081019050919050565b82818337600083830152505050565b6000612f27612f2284612ed4565b612eb9565b905082815260208101848484011115612f4357612f42612e54565b5b612f4e848285612f05565b509392505050565b600082601f830112612f6b57612f6a612e4f565b5b8135612f7b848260208601612f14565b91505092915050565b60008060408385031215612f9b57612f9a61298b565b5b600083013567ffffffffffffffff811115612fb957612fb8612990565b5b612fc585828601612f56565b9250506020612fd685828601612b23565b9150509250929050565b60a082016000820151612ff66000850182612cac565b5060208201516130096020850182612ccd565b50604082015161301c6040850182612ccd565b50606082015161302f6060850182612cac565b5060808201516130426080850182612cdc565b50505050565b600060a08201905061305d6000830184612fe0565b92915050565b61306c81612a1a565b811461307757600080fd5b50565b60008135905061308981613063565b92915050565b600080604083850312156130a6576130a561298b565b5b60006130b485828601612bd8565b92505060206130c58582860161307a565b9150509250929050565b600067ffffffffffffffff8211156130ea576130e9612e59565b5b6130f382612a96565b9050602081019050919050565b600061311361310e846130cf565b612eb9565b90508281526020810184848401111561312f5761312e612e54565b5b61313a848285612f05565b509392505050565b600082601f83011261315757613156612e4f565b5b8135613167848260208601613100565b91505092915050565b6000806000806080858703121561318a5761318961298b565b5b600061319887828801612bd8565b94505060206131a987828801612bd8565b93505060406131ba87828801612b23565b925050606085013567ffffffffffffffff8111156131db576131da612990565b5b6131e787828801613142565b91505092959194509250565b6000806040838503121561320a5761320961298b565b5b600061321885828601612bd8565b925050602061322985828601612bd8565b9150509250929050565b7f4e487b7100000000000000000000000000000000000000000000000000000000600052602260045260246000fd5b6000600282049050600182168061327a57607f821691505b60208210810361328d5761328c613233565b5b50919050565b7f4552433732313a20617070726f76616c20746f2063757272656e74206f776e6560008201527f7200000000000000000000000000000000000000000000000000000000000000602082015250565b60006132ef602183612a5b565b91506132fa82613293565b604082019050919050565b6000602082019050818103600083015261331e816132e2565b9050919050565b7f4552433732313a20617070726f76652063616c6c6572206973206e6f7420746f60008201527f6b656e206f776e6572206f7220617070726f76656420666f7220616c6c000000602082015250565b6000613381603d83612a5b565b915061338c82613325565b604082019050919050565b600060208201905081810360008301526133b081613374565b9050919050565b7f4552433732313a2063616c6c6572206973206e6f7420746f6b656e206f776e6560008201527f72206f7220617070726f76656400000000000000000000000000000000000000602082015250565b6000613413602d83612a5b565b915061341e826133b7565b604082019050919050565b6000602082019050818103600083015261344281613406565b9050919050565b7f4e487b7100000000000000000000000000000000000000000000000000000000600052601160045260246000fd5b600061348382612b02565b915061348e83612b02565b92508282019050808211156134a6576134a5613449565b5b92915050565b60006134b782612b02565b91507fffffffffffffffffffffffffffffffffffffffffffffffffffffffffffffffff82036134e9576134e8613449565b5b600182019050919050565b7f4e487b7100000000000000000000000000000000000000000000000000000000600052603260045260246000fd5b7f4552433732313a20696e76616c696420746f6b656e2049440000000000000000600082015250565b6000613559601883612a5b565b915061356482613523565b602082019050919050565b600060208201905081810360008301526135888161354c565b9050919050565b7f4552433732313a2061646472657373207a65726f206973206e6f74206120766160008201527f6c6964206f776e65720000000000000000000000000000000000000000000000602082015250565b60006135eb602983612a5b565b91506135f68261358f565b604082019050919050565b6000602082019050818103600083015261361a816135de565b9050919050565b7f506c65617365207375626d6974207468652061736b696e67207072696365206960008201527f6e206f7264657220746f20636f6d706c65746520746865207075726368617365602082015250565b600061367d604083612a5b565b915061368882613621565b604082019050919050565b600060208201905081810360008301526136ac81613670565b9050919050565b7f4f6e6c79206f776e65722063616e20757064617465206c697374696e6720707260008201527f6963650000000000000000000000000000000000000000000000000000000000602082015250565b600061370f602383612a5b565b915061371a826136b3565b604082019050919050565b6000602082019050818103600083015261373e81613702565b9050919050565b600081905092915050565b600061375b82612a50565b6137658185613745565b9350613775818560208601612a6c565b80840191505092915050565b600061378d8285613750565b91506137998284613750565b91508190509392505050565b7f4552433732313a207472616e736665722066726f6d20696e636f72726563742060008201527f6f776e6572000000000000000000000000000000000000000000000000000000602082015250565b6000613801602583612a5b565b915061380c826137a5565b604082019050919050565b60006020820190508181036000830152613830816137f4565b9050919050565b7f4552433732313a207472616e7366657220746f20746865207a65726f2061646460008201527f7265737300000000000000000000000000000000000000000000000000000000602082015250565b6000613893602483612a5b565b915061389e82613837565b604082019050919050565b600060208201905081810360008301526138c281613886565b9050919050565b7f45524337323155524953746f726167653a2055524920736574206f66206e6f6e60008201527f6578697374656e7420746f6b656e000000000000000000000000000000000000602082015250565b6000613925602e83612a5b565b9150613930826138c9565b604082019050919050565b6000602082019050818103600083015261395481613918565b9050919050565b60008190508160005260206000209050919050565b60006020601f8301049050919050565b600082821b905092915050565b6000600883026139bd7fffffffffffffffffffffffffffffffffffffffffffffffffffffffffffffffff82613980565b6139c78683613980565b95508019841693508086168417925050509392505050565b6000819050919050565b6000613a046139ff6139fa84612b02565b6139df565b612b02565b9050919050565b6000819050919050565b613a1e836139e9565b613a32613a2a82613a0b565b84845461398d565b825550505050565b600090565b613a47613a3a565b613a52818484613a15565b505050565b5b81811015613a7657613a6b600082613a3f565b600181019050613a58565b5050565b601f821115613abb57613a8c8161395b565b613a9584613970565b81016020851015613aa4578190505b613ab8613ab085613970565b830182613a57565b50505b505050565b600082821c905092915050565b6000613ade60001984600802613ac0565b1980831691505092915050565b6000613af78383613acd565b9150826002028217905092915050565b613b1082612a50565b67ffffffffffffffff811115613b2957613b28612e59565b5b613b338254613262565b613b3e828285613a7a565b600060209050601f831160018114613b715760008415613b5f578287015190505b613b698582613aeb565b865550613bd1565b601f198416613b7f8661395b565b60005b82811015613ba757848901518255600182019150602085019450602081019050613b82565b86831015613bc45784890151613bc0601f891682613acd565b8355505b6001600288020188555050505b505050505050565b7f486f706566756c6c792073656e64696e672074686520636f727265637420707260008201527f6963650000000000000000000000000000000000000000000000000000000000602082015250565b6000613c35602383612a5b565b9150613c4082613bd9565b604082019050919050565b60006020820190508181036000830152613c6481613c28565b9050919050565b7f4d616b652073757265207468652070726963652069736e2774206e656761746960008201527f7665000000000000000000000000000000000000000000000000000000000000602082015250565b6000613cc7602283612a5b565b9150613cd282613c6b565b604082019050919050565b60006020820190508181036000830152613cf681613cba565b9050919050565b6000608082019050613d126000830187612b97565b613d1f6020830186612b97565b613d2c6040830185612df8565b613d396060830184612a26565b95945050505050565b7f4552433732313a20617070726f766520746f2063616c6c657200000000000000600082015250565b6000613d78601983612a5b565b9150613d8382613d42565b602082019050919050565b60006020820190508181036000830152613da781613d6b565b9050919050565b7f4552433732313a207472616e7366657220746f206e6f6e20455243373231526560008201527f63656976657220696d706c656d656e7465720000000000000000000000000000602082015250565b6000613e0a603283612a5b565b9150613e1582613dae565b604082019050919050565b60006020820190508181036000830152613e3981613dfd565b9050919050565b6000613e4b82612b02565b9150613e5683612b02565b9250828203905081811115613e6e57613e6d613449565b5b92915050565b600081519050919050565b600082825260208201905092915050565b6000613e9b82613e74565b613ea58185613e7f565b9350613eb5818560208601612a6c565b613ebe81612a96565b840191505092915050565b6000608082019050613ede6000830187612b97565b613eeb6020830186612b97565b613ef86040830185612df8565b8181036060830152613f0a8184613e90565b905095945050505050565b600081519050613f24816129c1565b92915050565b600060208284031215613f4057613f3f61298b565b5b6000613f4e84828501613f15565b91505092915050565b7f4e487b7100000000000000000000000000000000000000000000000000000000600052601260045260246000fd5b7f4552433732313a206d696e7420746f20746865207a65726f2061646472657373600082015250565b6000613fbc602083612a5b565b9150613fc782613f86565b602082019050919050565b60006020820190508181036000830152613feb81613faf565b9050919050565b7f4552433732313a20746f6b656e20616c7265616479206d696e74656400000000600082015250565b6000614028601c83612a5b565b915061403382613ff2565b602082019050919050565b600060208201905081810360008301526140578161401b565b905091905056fea264697066735822122049aa4de8d3b2eba8692e69dbd4b8edba62aa283fab834fa4565a9a9f0717570a64736f6c63430008110033",
  "linkReferences": {},
  "deployedLinkReferences": {}
}